:100000000C9433010C945B010C945B010C945B0128
:100010000C945B010C945B010C945B010C945B01F0
:100020000C945B010C945B010C945B010C945B01E0
:100030000C945B010C945B010C9485060C945B01A1
:100040000C945B010C945B010C9420080C94470801
:100050000C945B010C945B010C945B010C945B01B0
:100060000C945B010C945B0180018001C003C00310
:10007000E817E817EC377C3E7E7EF66FF7EFDE7B05
:10008000CC33C00380010000000000000000002FFE
:1000900000000007000700147F147F14242A7F2A21
:1000A00012231308646236495522500005030000EC
:1000B000001C2241000041221C0014083E081408C4
:1000C000083E0808005030000008080808080060D2
:1000D00060000020100804023E5149453E00427F66
:1000E000400042615149462141454B311814127F6D
:1000F0001027454545393C4A4949300171090503F6
:100100003649494936064949291E0036360000005D
:10011000563600000814224100141414141400412F
:100120002214080201510906324979413E7E11111B
:10013000117E7F494949363E414141227F4141225A
:100140001C7F494949417F090909013E4149497AD2
:100150007F0808087F00417F41002040413F017F28
:10016000081422417F404040407F020C027F7F0400
:1001700008107F3E4141413E7F090909063E415139
:10018000215E7F09192946464949493101017F010C
:10019000013F4040403F1F2040201F3F4038403F2C
:1001A0006314081463070870080761514945430048
:1001B0007F41410002040810200041417F000402F9
:1001C0000102044040404040000102040020545419
:1001D00054787F48444438384444442038444448A0
:1001E0007F3854545418087E0901020C5252523E72
:1001F0007F0804047800447D40002040443D007F97
:100200001028440000417F40007C041804787C08DA
:1002100004047838444444387C1414140808141432
:10022000187C7C080404084854545420043F44407B
:10023000203C4040207C1C2040201C3C4030403C66
:1002400044281028440C5050503C4464544C440002
:100250000836410000007F00000041360800100809
:1002600008100800AE1111241FBECFEFD8E0DEBF8A
:10027000CDBF11E0A0E0B1E0E4E8F6E202C00590F5
:100280000D92A033B107D9F726E0A0E3B1E001C099
:100290001D92A531B207E1F711E0C3E3D1E004C03C
:1002A0002197FE010E943A13C233D107C9F70E9479
:1002B00070080C9440130C9400000E94BF1190939E
:1002C0003501809334010E94BF11909333018093D4
:1002D00032010E94BF119093A9018093A80144E6C6
:1002E00050E060E070E00E9431120E94BF119093D4
:1002F00031018093300140E050E0BA010E94311298
:1003000089B1847090E095958795959587958093B0
:10031000370180E48093010120E030E0273031058F
:1003200094F4C901880F991F880F991F880F991F8E
:10033000FC01E059FE4F1082FC01E85CFE4F108288
:100340002F5F3F4FEBCF8FEF9FEF0E942A078091E7
:1003500001014FE150E06CE770E090E00E94AD05D4
:100360000895AF92BF92CF92DF92EF92FF920F93D8
:100370001F93CF93DF93EC01F62E662319F0EE2442
:10038000E39402C0EE24EA94FF2031F00F2EFCE744
:10039000CF2ED12CF02D04C06894CC24C4F8D12CDD
:1003A0008B81823008F063C0FF2019F06BEF7FEF84
:1003B00002C065E070E08A81680F711DFF2031F096
:1003C00081E0613171053CF480E005C081E06C376B
:1003D00071050CF080E0882329F04FEF5FEF8981F1
:1003E0000E94E307FF2019F040E058EF02C04FE100
:1003F00050E0FF2019F000EE1FEF02C00FEF17E0F2
:100400006A8189810E94E3076A816E0D6A83A8016F
:1004100089810E94E307FF2041F02A8130E081E0DA
:100420002C153D054CF480E007C02A8130E081E0C6
:10043000C216D3060CF480E0882309F4AAC01882FF
:1004400010E0163008F0A5C0FF2029F06A8170E0A6
:10045000611B710905C08A81612F70E0680F711DF1
:100460004FEF5FEF89810E94E3071F5FEACF823081
:1004700009F065C0FF2029F06A8170E061507109C0
:1004800004C06A8170E0685F7F4F0FEF1FEF21E0CB
:1004900043E089810E9478076A816E0D6A83FF209C
:1004A00019F000E018EF02C00FE110E0FF2039F072
:1004B0000F2EAA24AA94F7E0BF2EF02D06C00F2E0F
:1004C000F0EEAF2EF7E0BF2EF02DFF2011F0E12C63
:1004D00003C06894EE24E2F8898128E041E08F5F50
:1004E0000E9478076A816E0D850124E041E08981D0
:1004F0000E9478076A816E0D898124E041E08E5F59
:100500000E947807FF2041F02A8130E081E02C151D
:100510003D054CF480E007C02A8130E081E0C2163E
:10052000D3060CF480E08823A1F118826A810FEFD2
:100530001FEF29E043E089810E9478072AC08330B9
:1005400041F50E9474060C811D812E813F81DC01E2
:10055000CB01801B910BA20BB30B813C964CAD429F
:10056000B10550F018820FEF1FEF2CE642E060E17A
:1005700089810E9478070DC0FF2019F000E018EF74
:1005800002C00FEF17E02CE642E060E189810E9493
:100590007807DF91CF911F910F91FF90EF90DF903F
:1005A000CF90BF90AF900895CF92DF92EF92FF92DD
:1005B0000F931F93CF93DF9389B191E0282F207180
:1005C00084FF90E0211115C080910001882389F0FB
:1005D0002091AB0130E02F5F3F4F23703078332301
:1005E00034F4215031092C6F3F6F2F5F3F4F209320
:1005F000AB019093000180913601813019F138F000
:10060000823009F4BFC0833009F4CCC0D4C04D9906
:1006100007C080913001909131010E94371201C0D2
:1006200080E0882309F4C7C040EA56E861E070E042
:1006300080913401909135010E94311281E08093C4
:100640003601B9C080913401909135010E94371272
:10065000882309F4B0C04D9992C03091AB01332387
:1006600041F0323049F0333009F063C080E090E06F
:1006700005C080E090E002C080E090E08730910506
:100680000CF065C0FC01EE0FFF1FEE0FFF1FEE0F19
:10069000FF1FE059FE4F2081211149C0FC01EE0FE0
:1006A000FF1FEE0FFF1FEE0FFF1FE059FE4F21E06F
:1006B000208320910101295F2183323011F424E746
:1006C00001C02BE7880F991F880F991F880F991F6A
:1006D000EC01C059DE4F2A833B830E9474066C8371
:1006E0007D838E839F838091AB01811109C024ECAF
:1006F00034E0309311062093100691E09093120697
:10070000823049F42AE135E0309311062093100637
:1007100091E0909312068330D1F485E495E09093B4
:1007200011068093100681E08093120610C0019696
:10073000A5CF313061F483E08093AA0140E050E01E
:10074000BA018091A8019091A9010E94311240E85C
:1007500058E361E070E080913201909133010E9492
:10076000311240EC57E269E070E0809130019091E5
:1007700031010E94311282E0809336011CC0109238
:10078000360119C04D9B17C040E553EC60E070E0A6
:1007900080913401909135010E94311283E0809361
:1007A000360109C080913401909135010E943712C1
:1007B0008111109236018091AA01882339F080912D
:1007C000A8019091A9010E94371201C080E08823FE
:1007D00009F44FC080E090E087309105CCF5FC0132
:1007E000EE0FFF1FEE0FFF1FEE0FFF1FE059FE4F32
:1007F000208121112BC0FC01EE0FFF1FEE0FFF1F08
:10080000EE0FFF1FE059FE4F21E0208320910101F0
:10081000295F21832091AB01223011F424E701C02C
:100820002BE7880F991F880F991F880F991FFC01CC
:10083000E059FE4F228313828FEE94E090931106CD
:100840008093100681E08093120602C00196C4CF07
:100850008091AA0181508093AA01882351F040E938
:1008600050ED63E070E08091A8019091A9010E9491
:10087000311280913201909133010E943712882306
:10088000E9F1C0E0D0E090E0C730D1059CF4FE0172
:10089000EE0FFF1FEE0FFF1FEE0FFF1FE059FE4F81
:1008A0008081882329F060E0CF010E94B10191E0AE
:1008B0002196EACFC0E0D0E0C730D1059CF4FE011C
:1008C000EE0FFF1FEE0FFF1FEE0FFF1FE85CFE4F46
:1008D0008081882329F061E0CF010E94B10191E07D
:1008E0002196EACF992351F048EA51E660E070E0A2
:1008F00080913201909133010E94311289B1887048
:10090000C82ED12CD594C794D594C794D594C794A8
:1009100090913701C91609F493C0C1108FC029B155
:10092000247030E035952795359527951091010174
:10093000C21659F0133028F08DEF810F809301011A
:100940000DC080E78093010109C01E3628F483E0C2
:10095000810F8093010102C0109201018091010179
:10096000181709F46BC0133010F4853638F41536B7
:10097000F8F08330E8F4E12CF12C02C0E12CF12CEA
:1009800080E1E816F1040CF050C0C0E0D0E0C031C6
:10099000D10554F46C2F64584FEF5FEF812F8E0D0B
:1009A0000E94E3072196F3CF8FEFE81AF80AE8CF09
:1009B0008117F0F4C0E0D0E0C031D105B4F50C2FC0
:1009C00004584FEF5FEF602F8DE0810F0E94E30727
:1009D0004FEF5FEF602F8EE0810F0E94E3074FEF34
:1009E0005FEF602F8FE0810F0E94E3072196E4CF35
:1009F000C0E0D0E0C031D105C4F40C2F04584FEF53
:100A00005FEF602F812F0E94E3074FEF5FEF602FB2
:100A100081E0810F0E94E3074FEF5FEF602F82E0DC
:100A2000810F0E94E3072196E5CF809101014FE1FC
:100A300050E06CE770E090E00E94AD05C092370195
:100A400081E0DF91CF911F910F91FF90EF90DF90A8
:100A5000CF9008958F929F92AF92BF92CF92DF92E4
:100A6000EF92FF920F931F93CF93DF9390EE940F2B
:100A70009F35D0F57901942EA62EB82EC0E0D0E097
:100A8000C530D1058CF5E92DF0E0B097CF01880F86
:100A9000991F880F991FE80FF91FEC0FFD1FE857EA
:100AA000FF4F8490C12CD12C88E0C816D104D4F417
:100AB00080FE08C0A7016A2D6C0D8C2F8B0D0E9443
:100AC000E30707C0A8016A2D6C0D8C2F8B0D0E94C7
:100AD000E307E82DF0E0F595E7958E2E8FEFC81A25
:100AE000D80AE2CF2196CCCFDF91CF911F910F9101
:100AF000FF90EF90DF90CF90BF90AF909F908F903E
:100B000008958F929F92AF92BF92CF92DF92EF9211
:100B1000FF920F931F93CF93DF937C014B01EA0168
:100B2000590168014881442359F086019501B401B7
:100B3000C7010E942A0586E0E80EF11C2196F2CF3B
:100B4000DF91CF911F910F91FF90EF90DF90CF90A9
:100B5000BF90AF909F908F900895AF92BF92CF9229
:100B6000DF92EF92FF920F931F93CF93DF93A82E04
:100B7000B62E6A0100E010E00031110584F5F8019D
:100B8000EE0FFF1FE859FF4FE590F490C0E0D0E072
:100B9000C031D1050CF52FE030E02C1B3D0B81E07E
:100BA00090E002C0880F991F2A95E2F78E219F21BD
:100BB000892B41F0A6016B2D600F8C2F8A0D0E94AE
:100BC000E30708C04FEF5FEF6B2D600F8C2F8A0D8E
:100BD0000E94E3072196DCCF0F5F1F4FCDCFDF913F
:100BE000CF911F910F91FF90EF90DF90CF90BF902A
:100BF000AF9008953FB7F89491E015C01092AD0101
:100C00001092AE011092AF011092B00192E094BD2B
:100C100095BD16BC8093AC01282F220F215027BD13
:100C200090936E0090E09111E9CF3FBF08959FB778
:100C3000F89481E00EC084B1826084B9109285007E
:100C400010928400109289001092880010926F0018
:100C500080E08111F0CF9FBF08959B01AC01012E70
:100C600019E0220F331F441F551F1A95D1F7102D7D
:100C700060E074E284EF90E00E940913BA01A901D8
:100C800041505109610971099FB7F89481E012C080
:100C9000E1E8F0E088E08083109285001092840003
:100CA000509389004093880080E4809380008CE01A
:100CB000808380E08111ECCF9FBF08959FB7F894A7
:100CC00081E00EC0E1E8F0E08081887F8083E0E889
:100CD000F0E080818F73808385B18D7F85B980E05E
:100CE0008111F0CF9FBF08952FB7F89431E009C06C
:100CF0006091AD017091AE018091AF019091B00112
:100D000030E03111F5CF2FBF08951F920F920FB62B
:100D10000F9211242F938F939F93AF93BF93809142
:100D2000AD019091AE01A091AF01B091B0012091C1
:100D3000AC01820F911DA11DB11D8093AD01909357
:100D4000AE01A093AF01B093B001BF91AF919F915D
:100D50008F912F910F900FBE0F901F90189584B117
:100D60008C6284B984B18F7E84B985B1846085B981
:100D700080E58CBD81E08DBD08958EBD0DB407FE6C
:100D8000FDCF8EB508959BB19E7F9BB995B19B7F9A
:100D900095B90E94BD0685B1846085B908959BB15F
:100DA00091609BB995B19B7F95B90E94BD0685B1B5
:100DB000846085B9089584B1816084B98AB1816005
:100DC0008AB985B1816085B98FE39CE90197F1F714
:100DD00000C0000085B18E7F85B99FEF20E782E0DB
:100DE000915020408040E1F700C0000085B1816053
:100DF00085B99FEF2BED85E0915020408040E1F7D1
:100E000000C0000081E00E94C3069FEF22E587E05A
:100E1000915020408040E1F700C0000081E10E9435
:100E2000C3069FEF2BED85E0915020408040E1F715
:100E300000C000008AE30E94C30685E00E94CF063E
:100E400086E30E94C30680EC0E94CF0689E20E94DE
:100E5000C3060895CF92DF92EF92FF92CF93DF9374
:100E6000C82FD92F8AE20E94C30680E00E94CF06D5
:100E700080E00E94CF0680E00E94CF068FE70E94AC
:100E8000CF068BE20E94C30680E00E94CF0680E07E
:100E90000E94CF0680E00E94CF068FE90E94CF0615
:100EA0008CE20E94C3068BB181608BB985B18B7FC8
:100EB00085B9C12CD12C76010BC08D2F0E94BD06A7
:100EC0008C2F0E94BD068FEFC81AD80AE80AF80ACC
:100ED000C11480E5D806E104F10478F385B184609B
:100EE00085B9DF91CF91FF90EF90DF90CF9008957B
:100EF000DF92EF92FF920F931F93CF93DF93D82F40
:100F0000F62EC42FD22E88230CF455C08FE98617F5
:100F100008F451C0842F90E08D0F911D8138910508
:100F200014F0C0E8CD1B8D2D90E08F0D911D813AFE
:100F300091051CF080EAD82EDF188AE20E94C306D1
:100F400080E00E94CF068D2F0E94CF0680E00E9495
:100F5000CF068C2F8D0F81500E94CF068BE20E940E
:100F6000C30680E00E94CF068F2D0E94CF0680E04E
:100F70000E94CF068D2D8F0D81500E94CF068CE2EE
:100F80000E94C3068BB181608BB985B18B7F85B917
:100F9000CD9D70011124C0E0D0E007C0812F0E94D8
:100FA000BD06802F0E94BD062196CE15DF05B0F349
:100FB00085B1846085B9DF91CF911F910F91FF902A
:100FC000EF90DF9008950F931F93CF93DF93D82F67
:100FD000C62F142F052F8AE20E94C30680E00E94CC
:100FE000CF068D2F0E94CF0680E00E94CF068D2F66
:100FF0000E94CF068BE20E94C30680E00E94CF06CB
:101000008C2F0E94CF0680E00E94CF068C2F0E947A
:10101000CF068CE20E94C3068BB181608BB985B18B
:101020008B7F85B9802F0E94BD06812F0E94BD064F
:1010300085B1846085B9DF91CF911F910F9108959B
:101040001F920F920FB60F9211248F93AF93BF93FD
:10105000EF93FF9380913102813868F4A1E3B2E00D
:10106000EC9181E08E0F8C93F0E08091C600EF54FC
:10107000FE4F808302C08091C600FF91EF91BF9127
:10108000AF918F910F900FBE0F901F9018951F92E8
:101090000F920FB60F9211248F93AF93BF93EF93DC
:1010A000FF938091B202882361F0A2EBB2E0EC9151
:1010B000E150EC93F0E0EE5CFD4F80818093C60040
:1010C00005C0E1ECF0E080818F7D8083FF91EF919E
:1010D000BF91AF918F910F900FBE0F901F901895F9
:1010E000789482E284B915B88AB1837C8AB98BB1CD
:1010F0008C638BB90E94AF060E94DB068AE00E94D7
:10110000B5110E944912D1E0C0E005C0C82FD1E05E
:1011100002C0C82FD1E00E94D2110E945412C130E7
:1011200071F018F0C330A9F0F6CFDD2319F00E945A
:101130001809D0E00E943009C813E8CFECCFDD23B6
:1011400019F00E945D01D0E00E94D402C813E1CFE3
:10115000E2CFDD2301F380E090E00E942A07D0E097
:10116000DACFEF92FF920F931F93CF93DF930FEF9E
:101170001FEF20E038EF48E051E06AE070E084E1E2
:1011800090E00E948105E12CF12C83E0E816F10447
:101190000CF047C0CE2DCC0FCC0F8C2F880F880FB2
:1011A000C80FCE5C8091B70290E0E816F906D9F43A
:1011B000D0E00FEF1FEF20E030E044E151E0BE014E
:1011C0008AE090E00E948105F701EE0FFF1FEE5FBD
:1011D000FE4F408151812FE130E0BE0189E190E076
:1011E0000E9481051AC0D0E00FEF1FEF2FEF3FEFF5
:1011F00046E151E0BE018AE090E00E948105F701DE
:10120000EE0FFF1FEE5FFE4F4081518120E030E086
:10121000BE0189E190E00E9481058FEFE81AF80A8B
:10122000B4CFDF91CF911F910F91FF90EF90089570
:101230000E94BF119093B4028093B3021092B70240
:1012400089B1847090E09595879595958795809361
:10125000B6028FEF9FEF0E942A070E94B1080895FF
:10126000CF93DF93C9B1C470D0E0D595C795D5951C
:10127000C7959091B602C91711F1C1111EC029B1CD
:10128000287030E035952795359527953595279524
:10129000C21751F08091B702882379F08150809372
:1012A000B7020E94B10809C08091B702823028F4C9
:1012B0008F5F8093B7020E94B108C093B6028091FD
:1012C000B5028130A9F018F0823081F135C04D9916
:1012D00035C040E553EC60E070E08091B30290913E
:1012E000B4020E94311281E08093B50280E02BC0ED
:1012F0008091B3029091B4020E943712882301F1C9
:101300004D9910C08091B702811107C00E945D0104
:1013100082E08093B50281E016C082E08093B5023E
:1013200080E011C01092B50280E00DC04D9B0AC054
:101330001092B50280E007C080E005C080E003C0E5
:1013400080E001C080E0DF91CF9108950197B1F571
:101350006F3F7F4F99F525E030E0E4ECF4E02F3F5C
:101360008FEF380789F08BE2DF011D928A95E9F74C
:1013700089E090E08F3FBFEF9B0711F00197FACF14
:10138000BB9621503109EBCF23E030E0E8EBF2E0EF
:101390002F3F4FEF340791F083E8DF011D928A95CC
:1013A000E9F78FE190E08F3FBFEF9B0711F00197C6
:1013B000FACFED57FF4F21503109EACF08958091C0
:1013C00098058A30B8F490919905911113C0E82FCF
:1013D000F0E0EE0FFF1FEE0FFF1FE059FA4F48EB52
:1013E00051E068EE73E040835183628373838F5FC3
:1013F00080939805809198058A30B8F4909199056A
:10140000911113C0E82FF0E0EE0FFF1FEE0FFF1F4A
:10141000E059FA4F40E153E068EE73E040835183B6
:10142000628373838F5F80939805809198058A30DB
:10143000B8F490919905911113C0E82FF0E0EE0FE8
:10144000FF1FEE0FFF1FE059FA4F40E753E068EE31
:1014500073E040835183628373838F5F8093980529
:101460008091EC048A30B8F49091ED04911113C08E
:10147000E82FF0E0EE0FFF1FEE0FFF1FEC53FB4FC6
:1014800040E753E06EE170E04083518362837383F1
:101490008F5F8093EC048091EC048A30B8F49091D3
:1014A000ED04911113C0E82FF0E0EE0FFF1FEE0FD7
:1014B000FF1FEC53FB4F4AEB52E068E270E04083C1
:1014C0005183628373838F5F8093EC048091EC047B
:1014D0008A30B8F49091ED04911113C0E82FF0E038
:1014E000EE0FFF1FEE0FFF1FEC53FB4F45E051E0E7
:1014F00064E170E040835183628373838F5F8093E4
:10150000EC04809117058A30B8F490911805911178
:1015100013C0E82FF0E0EE0FFF1FEE0FFF1FEC539C
:10152000FB4F4BE052E064E170E043A754A765A78E
:1015300076A78F5F80931705809117058A30B8F4DE
:1015400090911805911113C0E82FF0E0EE0FFF1FE6
:10155000EE0FFF1FEC53FB4F40E050E064E170E002
:1015600043A754A765A776A78F5F8093170580913F
:1015700017058A30B8F490911805911113C0E82F1F
:10158000F0E0EE0FFF1FEE0FFF1FEC53FB4F4BE0A1
:1015900052E064E170E043A754A765A776A78F5F88
:1015A00080931705809142058A30B8F490914305E5
:1015B000911113C0E82FF0E0EE0FFF1FEE0FFF1F99
:1015C000E65EFA4F40E153E06FE070E04083518304
:1015D000628373838F5F80934205809142058A30D6
:1015E000B8F490914305911113C0E82FF0E0EE0F8D
:1015F000FF1FEE0FFF1FE65EFA4F45E051E060E58A
:1016000070E040835183628373838F5F80934205D0
:10161000809142058A30B8F490914305911113C02E
:10162000E82FF0E0EE0FFF1FEE0FFF1FE65EFA4F10
:101630004AEF50E060E570E040835183628373833A
:101640008F5F80934205809142058A30B8F4909173
:101650004305911113C0E82FF0E0EE0FFF1FEE0FCE
:10166000FF1FE65EFA4F4DE551E066E970E040830A
:101670005183628373838F5F8093420580916D05F0
:101680008A30B8F490916E05911113C0E82FF0E004
:10169000EE0FFF1FEE0FFF1FEB5BFA4F49E451E027
:1016A0006CE370E040835183628373838F5F809328
:1016B0006D0580916D058A30B8F490916E05911199
:1016C00013C0E82FF0E0EE0FFF1FEE0FFF1FEB5BE4
:1016D000FA4F4DE551E06CE370E040835183628343
:1016E00073838F5F80936D0580916D058A30B8F4A8
:1016F00090916E05911113C0E82FF0E0EE0FFF1FDF
:10170000EE0FFF1FEB5BFA4F47E851E06CE370E030
:1017100040835183628373838F5F80936D058091D3
:101720006D058A30B8F490916E05911113C0E82FC1
:10173000F0E0EE0FFF1FEE0FFF1FEB5BFA4F4DE5E2
:1017400051E06CE370E040835183628373838F5F69
:1017500080936D0580916D058A30B8F490916E0587
:10176000911113C0E82FF0E0EE0FFF1FEE0FFF1FE7
:10177000EB5BFA4F49E451E06CE370E04083518346
:10178000628373838F5F80936D0580916D058A30CE
:10179000B8F490916E05911113C0E82FF0E0EE0FB0
:1017A000FF1FEE0FFF1FEB5BFA4F49E451E06CE3C4
:1017B00070E040835183628373838F5F80936D05F4
:1017C00080916D058A30B8F490916E05911113C027
:1017D000E82FF0E0EE0FFF1FEE0FFF1FEB5BFA4F5D
:1017E0004DE551E06CE370E0408351836283738385
:1017F0008F5F80936D0580916D058A30B8F490916C
:101800006E05911113C0E82FF0E0EE0FFF1FEE0FF1
:10181000FF1FEB5BFA4F47E851E06CE370E0408359
:101820005183628373838F5F80936D0580916D0513
:101830008A30B8F490916E05911113C0E82FF0E052
:10184000EE0FFF1FEE0FFF1FEB5BFA4F4DE551E070
:101850006CE370E040835183628373838F5F809376
:101860006D0580916D058A30B8F490916E059111E7
:1018700013C0E82FF0E0EE0FFF1FEE0FFF1FEB5B32
:10188000FA4F49E451E06CE370E040835183628396
:1018900073838F5F80936D05809138038032B8F435
:1018A00090913903911113C0E82FF0E0EE0FFF1F64
:1018B000EE0FFF1FE854FD4F48EB51E064EF71E07D
:1018C00040835183628373838F5F80933803809159
:1018D00038038032B8F490913903911113C0E82F86
:1018E000F0E0EE0FFF1FEE0FFF1FE854FD4F48EB37
:1018F00051E064EF71E040835183628373838F5FB3
:1019000080933803809138038032B8F49091390382
:10191000911113C0E82FF0E0EE0FFF1FEE0FFF1F35
:10192000E854FD4F48EB51E064EF71E04083518390
:10193000628373838F5F8093380380913803803292
:10194000B8F490913903911113C0E82FF0E0EE0F35
:10195000FF1FEE0FFF1FE854FD4F4DE551E06EE510
:1019600071E040835183628373838F5F8093380378
:10197000809138038032B8F490913903911113C0EB
:10198000E82FF0E0EE0FFF1FEE0FFF1FE854FD4FB2
:101990004BE052E066E970E04083518362837383D9
:1019A0008F5F80933803809138038032B8F4909130
:1019B0003903911113C0E82FF0E0EE0FFF1FEE0F77
:1019C000FF1FE854FD4F48EB51E064EF71E04083A6
:1019D0005183628373838F5F8093380380913803D0
:1019E0008032B8F490913903911113C0E82FF0E0E0
:1019F000EE0FFF1FEE0FFF1FE854FD4F4DE551E0C6
:101A00006EE571E040835183628373838F5F8093BF
:101A10003803809138038032B8F4909139039111E2
:101A200013C0E82FF0E0EE0FFF1FEE0FFF1FE8548A
:101A3000FD4F4BE052E066E970E0408351836283E2
:101A400073838F5F80933803809138038032B8F4BA
:101A500090913903911113C0E82FF0E0EE0FFF1FB2
:101A6000EE0FFF1FE854FD4F48EB51E068EE73E0C6
:101A700040835183628373838F5F809338038091A7
:101A800038038032B8F490913903911113C0E82FD4
:101A9000F0E0EE0FFF1FEE0FFF1FE854FD4F43E98C
:101AA00052E064EF71E040835183628373838F5F00
:101AB00080933803809138038032B8F490913903D1
:101AC000911113C0E82FF0E0EE0FFF1FEE0FFF1F84
:101AD000E854FD4F43E952E064EF71E040835183E5
:101AE000628373838F5F80933803809138038032E1
:101AF000B8F490913903911113C0E82FF0E0EE0F84
:101B0000FF1FEE0FFF1FE854FD4F43E952E064EF63
:101B100071E040835183628373838F5F80933803C6
:101B2000809138038032B8F490913903911113C039
:101B3000E82FF0E0EE0FFF1FEE0FFF1FE854FD4F00
:101B40004AEB52E06EE571E0408351836283738318
:101B50008F5F80933803809138038032B8F490917E
:101B60003903911113C0E82FF0E0EE0FFF1FEE0FC5
:101B7000FF1FE854FD4F4BE052E066E970E0408300
:101B80005183628373838F5F80933803809138031E
:101B90008032B8F490913903911113C0E82FF0E02E
:101BA000EE0FFF1FEE0FFF1FE854FD4F4FE951E00E
:101BB00064EF71E040835183628373838F5F80930E
:101BC0003803809138038032B8F490913903911131
:101BD00013C0E82FF0E0EE0FFF1FEE0FFF1FE854D9
:101BE000FD4F4DE551E06EE571E040835183628326
:101BF00073838F5F80933803809138038032B8F409
:101C000090913903911113C0E82FF0E0EE0FFF1F00
:101C1000EE0FFF1FE854FD4F4BE052E066E970E025
:101C200040835183628373838F5F809338038091F5
:101C300038038032B8F490913903911113C0E82F22
:101C4000F0E0EE0FFF1FEE0FFF1FE854FD4F48EBD3
:101C500051E068EE73E040835183628373838F5F4A
:101C6000809338038091BB038032B8F49091BC0319
:101C7000911113C0E82FF0E0EE0FFF1FEE0FFF1FD2
:101C8000E55CFC4F40E253E060E570E04083518347
:101C9000628373838F5F8093BB038091BB03803229
:101CA000B8F49091BC03911113C0E82FF0E0EE0F4F
:101CB000FF1FEE0FFF1FE55CFC4F40EB54E06CE3B1
:101CC00070E040835183628373838F5F8093BB0393
:101CD0008091BB038032B8F49091BC03911113C082
:101CE000E82FF0E0EE0FFF1FEE0FFF1FE55CFC4F4B
:101CF00048E552E066E470E0408351836283738379
:101D00008F5F8093BB038091BB038032B8F49091C6
:101D1000BC03911113C0E82FF0E0EE0FFF1FEE0F90
:101D2000FF1FE55CFC4F48E755E062E370E040834D
:101D30005183628373838F5F8093BB038091BB0366
:101D40008032B8F49091BC03911113C0E82FF0E0F9
:101D5000EE0FFF1FEE0FFF1FE55CFC4F48EE53E058
:101D600060E570E040835183628373838F5F80936B
:101D7000BB038091BB038032B8F49091BC039111F6
:101D800013C0E82FF0E0EE0FFF1FEE0FFF1FE55C22
:101D9000FC4F40E050E06EE170E04083518362838D
:101DA00073838F5F8093BB038091BB038032B8F451
:101DB0009091BC03911113C0E82FF0E0EE0FFF1FCC
:101DC000EE0FFF1FE55CFC4F4CED55E068E270E064
:101DD00040835183628373838F5F8093BB038091C1
:101DE000BB038032B8F49091BC03911113C0E82F6B
:101DF000F0E0EE0FFF1FEE0FFF1FE55CFC4F44E825
:101E000053E06CE370E040835183628373838F5FA0
:101E10008093BB038091BB038032B8F49091BC03E4
:101E2000911113C0E82FF0E0EE0FFF1FEE0FFF1F20
:101E3000E55CFC4F44E155E062E370E04083518390
:101E4000628373838F5F8093BB038091BB03803277
:101E5000B8F49091BC03911113C0E82FF0E0EE0F9D
:101E6000FF1FEE0FFF1FE55CFC4F4CEB52E060E5FF
:101E700070E040835183628373838F5F8093BB03E1
:101E80008091BB038032B8F49091BC03911113C0D0
:101E9000E82FF0E0EE0FFF1FEE0FFF1FE55CFC4F99
:101EA00040E456E068E270E04083518362837383CC
:101EB0008F5F8093BB038091BB038032B8F4909115
:101EC000BC03911113C0E82FF0E0EE0FFF1FEE0FDF
:101ED000FF1FE55CFC4F44EF51E06AE570E0408392
:101EE0005183628373838F5F8093BB038091BB03B5
:101EF0008032B8F49091BC03911113C0E82FF0E048
:101F0000EE0FFF1FEE0FFF1FE55CFC4F40E253E0BA
:101F10006CE370E040835183628373838F5F8093AF
:101F2000BB038091BB038032B8F49091BC03911144
:101F300013C0E82FF0E0EE0FFF1FEE0FFF1FE55C70
:101F4000FC4F4CE454E06CE370E0408351836283C7
:101F500073838F5F8093BB038091BB038032B8F49F
:101F60009091BC03911113C0E82FF0E0EE0FFF1F1A
:101F7000EE0FFF1FE55CFC4F44E853E06CE370E0BC
:101F800040835183628373838F5F8093BB0380910F
:101F9000BB038032B8F49091BC03911113C0E82FB9
:101FA000F0E0EE0FFF1FEE0FFF1FE55CFC4F48E770
:101FB00055E06CE370E040835183628373838F5FED
:101FC0008093BB0380913E048032B8F490913F042B
:101FD000911113C0E82FF0E0EE0FFF1FEE0FFF1F6F
:101FE000E254FC4F47E851E062ED70E040835183DA
:101FF000628373838F5F80933E0480913E048032BE
:10200000B8F490913F04911113C0E82FF0E0EE0F67
:10201000FF1FEE0FFF1FE254FC4F40E050E064E171
:1020200070E040835183628373838F5F80933E04AB
:1020300080913E048032B8F490913F04911113C016
:10204000E82FF0E0EE0FFF1FEE0FFF1FE254FC4FF2
:1020500047E851E062ED70E040835183628373830F
:102060008F5F80933E0480913E048032B8F490915B
:102070003F04911113C0E82FF0E0EE0FFF1FEE0FA9
:10208000FF1FE254FC4F40E050E064E170E0408309
:102090005183628373838F5F80933E0480913E04FB
:1020A0008032B8F490913F04911113C0E82FF0E012
:1020B000EE0FFF1FEE0FFF1FE254FC4F47EC51E005
:1020C00062ED70E040835183628373838F5F8093FE
:1020D0003E0480913E048032B8F490913F04911107
:1020E00013C0E82FF0E0EE0FFF1FEE0FFF1FE254CA
:1020F000FC4F40E050E064E170E040835183628334
:1021000073838F5F80933E0480913E048032B8F4E5
:1021100090913F04911113C0E82FF0E0EE0FFF1FE4
:10212000EE0FFF1FE254FC4F47E851E06CEC71E00A
:1021300040835183628373838F5F80933E048091D9
:102140003E048032B8F490913F04911113C0E82FFF
:10215000F0E0EE0FFF1FEE0FFF1FE254FC4F40E0D8
:1021600050E064E170E040835183628373838F5F4A
:1021700080933E0480913E048032B8F490913F04F5
:10218000911113C0E82FF0E0EE0FFF1FEE0FFF1FBD
:10219000E254FC4F40E050E064E670E0408351833D
:1021A000628373838F5F80933E0480913E0480320C
:1021B000B8F490913F04911113C0E82FF0E0EE0FB6
:1021C000FF1FEE0FFF1FE254FC4F4DE551E062EDA3
:1021D00070E040835183628373838F5F80933E04FA
:1021E00080913E048032B8F490913F04911113C065
:1021F000E82FF0E0EE0FFF1FEE0FFF1FE254FC4F41
:1022000040E050E064E170E0408351836283738377
:102210008F5F80933E0480913E048032B8F49091A9
:102220003F04911113C0E82FF0E0EE0FFF1FEE0FF7
:10223000FF1FE254FC4F47E851E06CEC71E0408333
:102240005183628373838F5F80933E0480913E0449
:102250008032B8F490913F04911113C0E82FF0E060
:10226000EE0FFF1FEE0FFF1FE254FC4F40E050E067
:1022700064E170E040835183628373838F5F809356
:102280003E0480913E048032B8F490913F04911155
:1022900013C0E82FF0E0EE0FFF1FEE0FFF1FE25418
:1022A000FC4F4AEF50E062ED70E04083518362835F
:1022B00073838F5F80933E0480913E048032B8F434
:1022C00090913F04911113C0E82FF0E0EE0FFF1F33
:1022D000EE0FFF1FE254FC4F40E050E064E170E07D
:1022E00040835183628373838F5F80933E04809128
:1022F0003E048032B8F490913F04911113C0E82F4E
:10230000F0E0EE0FFF1FEE0FFF1FE254FC4F46E21E
:1023100051E062ED70E040835183628373838F5F8D
:1023200080933E0480913E048032B8F490913F0443
:10233000911113C0E82FF0E0EE0FFF1FEE0FFF1F0B
:10234000E254FC4F40E050E064E170E04083518390
:10235000628373838F5F80933E0408956FEF7FEFF6
:1023600081E090E00E94A60908959091CB0591111B
:1023700005C00E94FA0581E08093CB050895809105
:10238000C605803160F491E0980F9093C60590E007
:10239000880F991F880F991F84539A4F089580E0E2
:1023A00090E008958F929F92AF92BF92CF92DF926A
:1023B000EF92FF920E9474064B015C018091C70569
:1023C0009091C805A091C905B091CA057501640135
:1023D000C81AD90AEA0AFB0A20E08091C605281724
:1023E00078F5822F90E0FC01EE0FFF1FEE0FFF1F2C
:1023F000E453FA4F4081518162817381C416D5063E
:10240000E606F70660F0880F991F880F991FFC01F8
:10241000E453FA4F10821182128213820FC0880F88
:10242000991F880F991FFC01E453FA4F4C195D095D
:102430006E097F0940835183628373832F5FCDCF01
:102440008092C7059092C805A092C905B092CA05AE
:10245000FF90EF90DF90CF90BF90AF909F908F90C4
:102460000895FC0140835183628373830895FC01C6
:10247000408151816281738181E0452B462B472B3E
:1024800009F080E00895FC0110821182128213820B
:1024900008950E9417060E94BF119093140680931E
:1024A00013060E94DF0908958091120681110BC066
:1024B00080911306909114060E94431210920D060B
:1024C00010920C060895A0911006B0911106109775
:1024D00009F445C0E0910C06F0910D06309709F023
:1024E00089C09A968C919A9798969C9198978913FF
:1024F00003C09A961C920DC091E0980F9A969C93F7
:102500009A97E82FF0E0EE0FFF1FEE0FFF1FEA0F84
:10251000FB1FF0930D06E0930C06309739F41092F0
:102520001106109210061092120664C022813381A7
:10253000A8EEB3E00E942B13AB01BC0180911306FF
:10254000909114060E943112E0910C06F0910D0654
:102550006081718180E090E00E942D064BC08091E7
:102560000E0690910F06009709F444C0E0910C0606
:10257000F0910D063097F1F5DC01AE57BF4F2C916D
:1025800012973C91231303C012961C920EC0FC01BB
:10259000EE57FF4F31E0320F3083E22FF0E0EE0FC5
:1025A000FF1FEE0FFF1FE80FF91FF0930D06E093DA
:1025B0000C06309739F410920F0610920E06109206
:1025C000120618C022813381A8EEB3E00E942B13BB
:1025D000AB01BC0180911306909114060E94311248
:1025E000E0910C06F0910D066081718180E090E031
:1025F0000E942D0680911306909114060E943712B6
:10260000882331F010920D0610920C060E945E068F
:102610000895A1E21A2EAA1BBB1BFD010DC0AA1F23
:10262000BB1FEE1FFF1FA217B307E407F50720F03B
:10263000A21BB30BE40BF50B661F771F881F991FB6
:102640001A9469F760957095809590959B01AC01FF
:10265000BD01CF010895A29FB001B39FC001A39F08
:10266000700D811D1124911DB29F700D811D1124CB
:10267000911D0895EE0FFF1F0590F491E02D099430
:04268000F894FFCFFC
:102684000140180121012901534B55505241205753
:10269400415253003E002000505249504F4A495481
:1026A4000041525A454E414C00534B4F5245000095
:00000001FF
